{
  "contractName": "Logging",
  "abi": [
    {
      "constant": true,
      "inputs": [],
      "name": "name",
      "outputs": [
        {
          "name": "",
          "type": "string"
        }
      ],
      "payable": false,
      "stateMutability": "view",
      "type": "function",
      "signature": "0x06fdde03"
    },
    {
      "constant": true,
      "inputs": [],
      "name": "logCount",
      "outputs": [
        {
          "name": "",
          "type": "uint256"
        }
      ],
      "payable": false,
      "stateMutability": "view",
      "type": "function",
      "signature": "0xa503898f"
    },
    {
      "constant": true,
      "inputs": [
        {
          "name": "",
          "type": "uint256"
        }
      ],
      "name": "logs",
      "outputs": [
        {
          "name": "id",
          "type": "uint256"
        },
        {
          "name": "username",
          "type": "string"
        },
        {
          "name": "timestamp",
          "type": "uint256"
        }
      ],
      "payable": false,
      "stateMutability": "view",
      "type": "function",
      "signature": "0xe79899bd"
    },
    {
      "inputs": [],
      "payable": false,
      "stateMutability": "nonpayable",
      "type": "constructor",
      "signature": "constructor"
    },
    {
      "anonymous": false,
      "inputs": [
        {
          "indexed": false,
          "name": "id",
          "type": "uint256"
        },
        {
          "indexed": false,
          "name": "username",
          "type": "string"
        },
        {
          "indexed": false,
          "name": "timestamp",
          "type": "uint256"
        }
      ],
      "name": "LogCreated",
      "type": "event",
      "signature": "0xfd1464ce466c616c2d6b098a47747e043076d9e6f5894d84c76a6579e0699b4e"
    },
    {
      "constant": false,
      "inputs": [
        {
          "name": "_username",
          "type": "string"
        },
        {
          "name": "_timestamp",
          "type": "uint256"
        }
      ],
      "name": "createLog",
      "outputs": [],
      "payable": false,
      "stateMutability": "nonpayable",
      "type": "function",
      "signature": "0xc98326f3"
    }
  ],
  "bytecode": "0x6080604052600060015534801561001557600080fd5b506040805190810160405280600c81526020017f53736f72696e4c6f67676572000000000000000000000000000000000000000081525060009080519060200190610061929190610067565b5061010c565b828054600181600116156101000203166002900490600052602060002090601f016020900481019282601f106100a857805160ff19168380011785556100d6565b828001600101855582156100d6579182015b828111156100d55782518255916020019190600101906100ba565b5b5090506100e391906100e7565b5090565b61010991905b808211156101055760008160009055506001016100ed565b5090565b90565b6106288061011b6000396000f3fe608060405260043610610062576000357c0100000000000000000000000000000000000000000000000000000000900463ffffffff16806306fdde0314610067578063a503898f146100f7578063c98326f314610122578063e79899bd146101f4575b600080fd5b34801561007357600080fd5b5061007c6102b6565b6040518080602001828103825283818151815260200191508051906020019080838360005b838110156100bc5780820151818401526020810190506100a1565b50505050905090810190601f1680156100e95780820380516001836020036101000a031916815260200191505b509250505060405180910390f35b34801561010357600080fd5b5061010c610354565b6040518082815260200191505060405180910390f35b34801561012e57600080fd5b506101f26004803603604081101561014557600080fd5b810190808035906020019064010000000081111561016257600080fd5b82018360208201111561017457600080fd5b8035906020019184600183028401116401000000008311171561019657600080fd5b91908080601f016020809104026020016040519081016040528093929190818152602001838380828437600081840152601f19601f8201169050808301925050505050505091929192908035906020019092919050505061035a565b005b34801561020057600080fd5b5061022d6004803603602081101561021757600080fd5b8101908080359060200190929190505050610495565b6040518084815260200180602001838152602001828103825284818151815260200191508051906020019080838360005b8381101561027957808201518184015260208101905061025e565b50505050905090810190601f1680156102a65780820380516001836020036101000a031916815260200191505b5094505050505060405180910390f35b60008054600181600116156101000203166002900480601f01602080910402602001604051908101604052809291908181526020018280546001816001161561010002031660029004801561034c5780601f106103215761010080835404028352916020019161034c565b820191906000526020600020905b81548152906001019060200180831161032f57829003601f168201915b505050505081565b60015481565b6000825111151561036a57600080fd5b6001600081548092919060010191905055506060604051908101604052806001548152602001838152602001828152506002600060015481526020019081526020016000206000820151816000015560208201518160010190805190602001906103d5929190610557565b50604082015181600201559050507ffd1464ce466c616c2d6b098a47747e043076d9e6f5894d84c76a6579e0699b4e60015483836040518084815260200180602001838152602001828103825284818151815260200191508051906020019080838360005b8381101561045557808201518184015260208101905061043a565b50505050905090810190601f1680156104825780820380516001836020036101000a031916815260200191505b5094505050505060405180910390a15050565b6002602052806000526040600020600091509050806000015490806001018054600181600116156101000203166002900480601f0160208091040260200160405190810160405280929190818152602001828054600181600116156101000203166002900480156105475780601f1061051c57610100808354040283529160200191610547565b820191906000526020600020905b81548152906001019060200180831161052a57829003601f168201915b5050505050908060020154905083565b828054600181600116156101000203166002900490600052602060002090601f016020900481019282601f1061059857805160ff19168380011785556105c6565b828001600101855582156105c6579182015b828111156105c55782518255916020019190600101906105aa565b5b5090506105d391906105d7565b5090565b6105f991905b808211156105f55760008160009055506001016105dd565b5090565b9056fea165627a7a723058202140148f7e99b335f918497e128bd828320bad707d84b6b8be6f1b6e357ab1940029",
  "source": "pragma solidity ^0.5.0;\r\n\r\ncontract Logging {\r\n    string public name;\r\n    uint public logCount = 0;\r\n    mapping(uint => Log) public logs;\r\n\r\n    struct Log {\r\n        uint id;\r\n        string username;\r\n        uint timestamp;\r\n    }\r\n\r\n    event LogCreated( // ???\r\n        uint id,\r\n        string username,\r\n        uint timestamp\r\n    );\r\n\r\n    constructor() public {\r\n        name = \"SsorinLogger\";\r\n    }\r\n\r\n    function createLog(string memory _username, uint _timestamp) public {\r\n        // valid username\r\n        require(bytes(_username).length > 0);\r\n        // increment log count\r\n        logCount++;\r\n        // create a log\r\n        logs[logCount]\r\n            = Log(logCount, _username, _timestamp);\r\n        // trigger on event\r\n        emit LogCreated(logCount, _username, _timestamp);\r\n    }\r\n}",
  "sourcePath": "D:/LearningBlockchain/logging2/src/contracts/Logging.sol",
  "compiler": {
    "name": "solc",
    "version": "0.5.0+commit.1d4f565a.Emscripten.clang"
  },
  "schemaVersion": "3.0.2",
  "updatedAt": "2021-02-03T21:27:19.087Z",
  "devdoc": {
    "methods": {}
  },
  "userdoc": {
    "methods": {}
  }
}