{
  "contractName": "Logging",
  "abi": [
    {
      "constant": true,
      "inputs": [],
      "name": "name",
      "outputs": [
        {
          "name": "",
          "type": "string"
        }
      ],
      "payable": false,
      "stateMutability": "view",
      "type": "function",
      "signature": "0x06fdde03"
    },
    {
      "constant": true,
      "inputs": [],
      "name": "logCount",
      "outputs": [
        {
          "name": "",
          "type": "uint256"
        }
      ],
      "payable": false,
      "stateMutability": "view",
      "type": "function",
      "signature": "0xa503898f"
    },
    {
      "constant": true,
      "inputs": [
        {
          "name": "",
          "type": "uint256"
        }
      ],
      "name": "logs",
      "outputs": [
        {
          "name": "id",
          "type": "uint256"
        },
        {
          "name": "username",
          "type": "string"
        },
        {
          "name": "timestamp",
          "type": "uint256"
        }
      ],
      "payable": false,
      "stateMutability": "view",
      "type": "function",
      "signature": "0xe79899bd"
    },
    {
      "inputs": [],
      "payable": false,
      "stateMutability": "nonpayable",
      "type": "constructor",
      "signature": "constructor"
    },
    {
      "anonymous": false,
      "inputs": [
        {
          "indexed": false,
          "name": "id",
          "type": "uint256"
        },
        {
          "indexed": false,
          "name": "username",
          "type": "string"
        },
        {
          "indexed": false,
          "name": "timestamp",
          "type": "uint256"
        }
      ],
      "name": "LogAdded",
      "type": "event",
      "signature": "0x3140df11ddb0908e104d2adba12df3d1cd9654a30c34a980017eef5cac8c011f"
    },
    {
      "constant": false,
      "inputs": [
        {
          "components": [
            {
              "name": "id",
              "type": "uint256"
            },
            {
              "name": "username",
              "type": "string"
            },
            {
              "name": "timestamp",
              "type": "uint256"
            }
          ],
          "name": "_array",
          "type": "tuple[]"
        }
      ],
      "name": "createLog",
      "outputs": [],
      "payable": false,
      "stateMutability": "nonpayable",
      "type": "function",
      "signature": "0x4d0ffa83"
    }
  ],
  "bytecode": "0x6080604052600060015534801561001557600080fd5b506040805190810160405280600c81526020017f53736f72696e4c6f67676572000000000000000000000000000000000000000081525060009080519060200190610061929190610067565b5061010c565b828054600181600116156101000203166002900490600052602060002090601f016020900481019282601f106100a857805160ff19168380011785556100d6565b828001600101855582156100d6579182015b828111156100d55782518255916020019190600101906100ba565b5b5090506100e391906100e7565b5090565b61010991905b808211156101055760008160009055506001016100ed565b5090565b90565b6107fe8061011b6000396000f3fe608060405260043610610062576000357c0100000000000000000000000000000000000000000000000000000000900463ffffffff16806306fdde03146100675780634d0ffa8314610092578063a503898f146100bb578063e79899bd146100e6575b600080fd5b34801561007357600080fd5b5061007c610125565b6040516100899190610656565b60405180910390f35b34801561009e57600080fd5b506100b960048036036100b491908101906105a7565b6101c3565b005b3480156100c757600080fd5b506100d06102e2565b6040516100dd9190610678565b60405180910390f35b3480156100f257600080fd5b5061010d600480360361010891908101906105e8565b6102e8565b60405161011c93929190610693565b60405180910390f35b60008054600181600116156101000203166002900480601f0160208091040260200160405190810160405280929190818152602001828054600181600116156101000203166002900480156101bb5780601f10610190576101008083540402835291602001916101bb565b820191906000526020600020905b81548152906001019060200180831161019e57829003601f168201915b505050505081565b60008090505b81518110156102de5781818151811015156101e057fe5b906020019060200201516002600060015481526020019081526020016000206000820151816000015560208201518160010190805190602001906102259291906103aa565b50604082015181600201559050506001600081548092919060010191905055507f3140df11ddb0908e104d2adba12df3d1cd9654a30c34a980017eef5cac8c011f828281518110151561027457fe5b9060200190602002015160000151838381518110151561029057fe5b906020019060200201516020015184848151811015156102ac57fe5b90602001906020020151604001516040516102c993929190610693565b60405180910390a180806001019150506101c9565b5050565b60015481565b6002602052806000526040600020600091509050806000015490806001018054600181600116156101000203166002900480601f01602080910402602001604051908101604052809291908181526020018280546001816001161561010002031660029004801561039a5780601f1061036f5761010080835404028352916020019161039a565b820191906000526020600020905b81548152906001019060200180831161037d57829003601f168201915b5050505050908060020154905083565b828054600181600116156101000203166002900490600052602060002090601f016020900481019282601f106103eb57805160ff1916838001178555610419565b82800160010185558215610419579182015b828111156104185782518255916020019190600101906103fd565b5b509050610426919061042a565b5090565b61044c91905b80821115610448576000816000905550600101610430565b5090565b90565b600082601f830112151561046257600080fd5b8135610475610470826106fe565b6106d1565b9150818183526020840193506020810190508360005b838110156104bb57813586016104a1888261051b565b84526020840193506020830192505060018101905061048b565b5050505092915050565b600082601f83011215156104d857600080fd5b81356104eb6104e682610726565b6106d1565b9150808252602083016020830185838301111561050757600080fd5b610512838284610771565b50505092915050565b60006060828403121561052d57600080fd5b61053760606106d1565b9050600061054784828501610593565b600083015250602082013567ffffffffffffffff81111561056757600080fd5b610573848285016104c5565b602083015250604061058784828501610593565b60408301525092915050565b600061059f8235610767565b905092915050565b6000602082840312156105b957600080fd5b600082013567ffffffffffffffff8111156105d357600080fd5b6105df8482850161044f565b91505092915050565b6000602082840312156105fa57600080fd5b600061060884828501610593565b91505092915050565b600061061c82610752565b808452610630816020860160208601610780565b610639816107b3565b602085010191505092915050565b6106508161075d565b82525050565b600060208201905081810360008301526106708184610611565b905092915050565b600060208201905061068d6000830184610647565b92915050565b60006060820190506106a86000830186610647565b81810360208301526106ba8185610611565b90506106c96040830184610647565b949350505050565b6000604051905081810181811067ffffffffffffffff821117156106f457600080fd5b8060405250919050565b600067ffffffffffffffff82111561071557600080fd5b602082029050602081019050919050565b600067ffffffffffffffff82111561073d57600080fd5b601f19601f8301169050602081019050919050565b600081519050919050565b6000819050919050565b6000819050919050565b82818337600083830152505050565b60005b8381101561079e578082015181840152602081019050610783565b838111156107ad576000848401525b50505050565b6000601f19601f830116905091905056fea265627a7a723058202032cc841447f86016917d867e1f6d2408b9c6c045d3048ce7906d03b3770d336c6578706572696d656e74616cf50037",
  "source": "pragma solidity ^0.5.0;\r\npragma experimental ABIEncoderV2;\r\n\r\ncontract Logging {\r\n    string public name;\r\n    uint public logCount = 0; \r\n    mapping(uint => Log) public logs;\r\n    \r\n    struct Log {\r\n        uint id;\r\n        string username;\r\n        uint timestamp;\r\n    }\r\n\r\n    event LogAdded (\r\n        uint id,\r\n        string username,\r\n        uint timestamp\r\n    );\r\n    \r\n    constructor() public {\r\n        name = \"SsorinLogger\";\r\n    }\r\n\r\n    function createLog(Log[] memory _array) public {\r\n        // add info\r\n        for (uint i = 0; i < _array.length; i++) {\r\n            logs[logCount] = _array[i];\r\n            logCount++;\r\n            // trigger on event\r\n            emit LogAdded(_array[i].id, _array[i].username, _array[i].timestamp);\r\n        }\r\n    }\r\n}",
  "sourcePath": "D:/LearningBlockchain/logging2/src/contracts/Logging.sol",
  "compiler": {
    "name": "solc",
    "version": "0.5.0+commit.1d4f565a.Emscripten.clang"
  },
  "schemaVersion": "3.0.2",
  "updatedAt": "2021-02-03T19:49:41.072Z",
  "devdoc": {
    "methods": {}
  },
  "userdoc": {
    "methods": {}
  }
}